{
  "_format": "hh-sol-artifact-1",
  "contractName": "GenesisVerifierNFT",
  "sourceName": "contracts/GenesisVerifierNFT.sol",
  "abi": [
    {
      "inputs": [],
      "stateMutability": "nonpayable",
      "type": "constructor"
    },
    {
      "inputs": [
        {
          "internalType": "address",
          "name": "sender",
          "type": "address"
        },
        {
          "internalType": "uint256",
          "name": "tokenId",
          "type": "uint256"
        },
        {
          "internalType": "address",
          "name": "owner",
          "type": "address"
        }
      ],
      "name": "ERC721IncorrectOwner",
      "type": "error"
    },
    {
      "inputs": [
        {
          "internalType": "address",
          "name": "operator",
          "type": "address"
        },
        {
          "internalType": "uint256",
          "name": "tokenId",
          "type": "uint256"
        }
      ],
      "name": "ERC721InsufficientApproval",
      "type": "error"
    },
    {
      "inputs": [
        {
          "internalType": "address",
          "name": "approver",
          "type": "address"
        }
      ],
      "name": "ERC721InvalidApprover",
      "type": "error"
    },
    {
      "inputs": [
        {
          "internalType": "address",
          "name": "operator",
          "type": "address"
        }
      ],
      "name": "ERC721InvalidOperator",
      "type": "error"
    },
    {
      "inputs": [
        {
          "internalType": "address",
          "name": "owner",
          "type": "address"
        }
      ],
      "name": "ERC721InvalidOwner",
      "type": "error"
    },
    {
      "inputs": [
        {
          "internalType": "address",
          "name": "receiver",
          "type": "address"
        }
      ],
      "name": "ERC721InvalidReceiver",
      "type": "error"
    },
    {
      "inputs": [
        {
          "internalType": "address",
          "name": "sender",
          "type": "address"
        }
      ],
      "name": "ERC721InvalidSender",
      "type": "error"
    },
    {
      "inputs": [
        {
          "internalType": "uint256",
          "name": "tokenId",
          "type": "uint256"
        }
      ],
      "name": "ERC721NonexistentToken",
      "type": "error"
    },
    {
      "inputs": [
        {
          "internalType": "address",
          "name": "owner",
          "type": "address"
        }
      ],
      "name": "OwnableInvalidOwner",
      "type": "error"
    },
    {
      "inputs": [
        {
          "internalType": "address",
          "name": "account",
          "type": "address"
        }
      ],
      "name": "OwnableUnauthorizedAccount",
      "type": "error"
    },
    {
      "anonymous": false,
      "inputs": [
        {
          "indexed": true,
          "internalType": "address",
          "name": "owner",
          "type": "address"
        },
        {
          "indexed": true,
          "internalType": "address",
          "name": "approved",
          "type": "address"
        },
        {
          "indexed": true,
          "internalType": "uint256",
          "name": "tokenId",
          "type": "uint256"
        }
      ],
      "name": "Approval",
      "type": "event"
    },
    {
      "anonymous": false,
      "inputs": [
        {
          "indexed": true,
          "internalType": "address",
          "name": "owner",
          "type": "address"
        },
        {
          "indexed": true,
          "internalType": "address",
          "name": "operator",
          "type": "address"
        },
        {
          "indexed": false,
          "internalType": "bool",
          "name": "approved",
          "type": "bool"
        }
      ],
      "name": "ApprovalForAll",
      "type": "event"
    },
    {
      "anonymous": false,
      "inputs": [
        {
          "indexed": true,
          "internalType": "uint256",
          "name": "tokenId",
          "type": "uint256"
        }
      ],
      "name": "GenesisVerifierBurned",
      "type": "event"
    },
    {
      "anonymous": false,
      "inputs": [
        {
          "indexed": true,
          "internalType": "address",
          "name": "to",
          "type": "address"
        },
        {
          "indexed": true,
          "internalType": "uint256",
          "name": "tokenId",
          "type": "uint256"
        }
      ],
      "name": "GenesisVerifierMinted",
      "type": "event"
    },
    {
      "anonymous": false,
      "inputs": [
        {
          "indexed": true,
          "internalType": "address",
          "name": "previousOwner",
          "type": "address"
        },
        {
          "indexed": true,
          "internalType": "address",
          "name": "newOwner",
          "type": "address"
        }
      ],
      "name": "OwnershipTransferred",
      "type": "event"
    },
    {
      "anonymous": false,
      "inputs": [
        {
          "indexed": true,
          "internalType": "address",
          "name": "from",
          "type": "address"
        },
        {
          "indexed": true,
          "internalType": "address",
          "name": "to",
          "type": "address"
        },
        {
          "indexed": true,
          "internalType": "uint256",
          "name": "tokenId",
          "type": "uint256"
        }
      ],
      "name": "Transfer",
      "type": "event"
    },
    {
      "inputs": [
        {
          "internalType": "address",
          "name": "to",
          "type": "address"
        },
        {
          "internalType": "uint256",
          "name": "tokenId",
          "type": "uint256"
        }
      ],
      "name": "approve",
      "outputs": [],
      "stateMutability": "nonpayable",
      "type": "function"
    },
    {
      "inputs": [
        {
          "internalType": "address",
          "name": "owner",
          "type": "address"
        }
      ],
      "name": "balanceOf",
      "outputs": [
        {
          "internalType": "uint256",
          "name": "",
          "type": "uint256"
        }
      ],
      "stateMutability": "view",
      "type": "function"
    },
    {
      "inputs": [
        {
          "internalType": "address[]",
          "name": "recipients",
          "type": "address[]"
        }
      ],
      "name": "batchMint",
      "outputs": [],
      "stateMutability": "nonpayable",
      "type": "function"
    },
    {
      "inputs": [
        {
          "internalType": "uint256",
          "name": "tokenId",
          "type": "uint256"
        }
      ],
      "name": "burn",
      "outputs": [],
      "stateMutability": "nonpayable",
      "type": "function"
    },
    {
      "inputs": [
        {
          "internalType": "uint256",
          "name": "tokenId",
          "type": "uint256"
        }
      ],
      "name": "getApproved",
      "outputs": [
        {
          "internalType": "address",
          "name": "",
          "type": "address"
        }
      ],
      "stateMutability": "view",
      "type": "function"
    },
    {
      "inputs": [
        {
          "internalType": "address",
          "name": "",
          "type": "address"
        }
      ],
      "name": "hasBeenGenesisVerifier",
      "outputs": [
        {
          "internalType": "bool",
          "name": "",
          "type": "bool"
        }
      ],
      "stateMutability": "view",
      "type": "function"
    },
    {
      "inputs": [
        {
          "internalType": "address",
          "name": "owner",
          "type": "address"
        },
        {
          "internalType": "address",
          "name": "operator",
          "type": "address"
        }
      ],
      "name": "isApprovedForAll",
      "outputs": [
        {
          "internalType": "bool",
          "name": "",
          "type": "bool"
        }
      ],
      "stateMutability": "view",
      "type": "function"
    },
    {
      "inputs": [
        {
          "internalType": "address",
          "name": "account",
          "type": "address"
        }
      ],
      "name": "isGenesisVerifier",
      "outputs": [
        {
          "internalType": "bool",
          "name": "",
          "type": "bool"
        }
      ],
      "stateMutability": "view",
      "type": "function"
    },
    {
      "inputs": [
        {
          "internalType": "address",
          "name": "to",
          "type": "address"
        }
      ],
      "name": "mint",
      "outputs": [],
      "stateMutability": "nonpayable",
      "type": "function"
    },
    {
      "inputs": [],
      "name": "name",
      "outputs": [
        {
          "internalType": "string",
          "name": "",
          "type": "string"
        }
      ],
      "stateMutability": "view",
      "type": "function"
    },
    {
      "inputs": [],
      "name": "owner",
      "outputs": [
        {
          "internalType": "address",
          "name": "",
          "type": "address"
        }
      ],
      "stateMutability": "view",
      "type": "function"
    },
    {
      "inputs": [
        {
          "internalType": "uint256",
          "name": "tokenId",
          "type": "uint256"
        }
      ],
      "name": "ownerOf",
      "outputs": [
        {
          "internalType": "address",
          "name": "",
          "type": "address"
        }
      ],
      "stateMutability": "view",
      "type": "function"
    },
    {
      "inputs": [],
      "name": "renounceOwnership",
      "outputs": [],
      "stateMutability": "nonpayable",
      "type": "function"
    },
    {
      "inputs": [
        {
          "internalType": "address",
          "name": "from",
          "type": "address"
        },
        {
          "internalType": "address",
          "name": "to",
          "type": "address"
        },
        {
          "internalType": "uint256",
          "name": "tokenId",
          "type": "uint256"
        }
      ],
      "name": "safeTransferFrom",
      "outputs": [],
      "stateMutability": "nonpayable",
      "type": "function"
    },
    {
      "inputs": [
        {
          "internalType": "address",
          "name": "from",
          "type": "address"
        },
        {
          "internalType": "address",
          "name": "to",
          "type": "address"
        },
        {
          "internalType": "uint256",
          "name": "tokenId",
          "type": "uint256"
        },
        {
          "internalType": "bytes",
          "name": "data",
          "type": "bytes"
        }
      ],
      "name": "safeTransferFrom",
      "outputs": [],
      "stateMutability": "nonpayable",
      "type": "function"
    },
    {
      "inputs": [
        {
          "internalType": "address",
          "name": "operator",
          "type": "address"
        },
        {
          "internalType": "bool",
          "name": "approved",
          "type": "bool"
        }
      ],
      "name": "setApprovalForAll",
      "outputs": [],
      "stateMutability": "nonpayable",
      "type": "function"
    },
    {
      "inputs": [
        {
          "internalType": "bytes4",
          "name": "interfaceId",
          "type": "bytes4"
        }
      ],
      "name": "supportsInterface",
      "outputs": [
        {
          "internalType": "bool",
          "name": "",
          "type": "bool"
        }
      ],
      "stateMutability": "view",
      "type": "function"
    },
    {
      "inputs": [],
      "name": "symbol",
      "outputs": [
        {
          "internalType": "string",
          "name": "",
          "type": "string"
        }
      ],
      "stateMutability": "view",
      "type": "function"
    },
    {
      "inputs": [
        {
          "internalType": "uint256",
          "name": "tokenId",
          "type": "uint256"
        }
      ],
      "name": "tokenURI",
      "outputs": [
        {
          "internalType": "string",
          "name": "",
          "type": "string"
        }
      ],
      "stateMutability": "view",
      "type": "function"
    },
    {
      "inputs": [
        {
          "internalType": "address",
          "name": "from",
          "type": "address"
        },
        {
          "internalType": "address",
          "name": "to",
          "type": "address"
        },
        {
          "internalType": "uint256",
          "name": "tokenId",
          "type": "uint256"
        }
      ],
      "name": "transferFrom",
      "outputs": [],
      "stateMutability": "nonpayable",
      "type": "function"
    },
    {
      "inputs": [
        {
          "internalType": "address",
          "name": "newOwner",
          "type": "address"
        }
      ],
      "name": "transferOwnership",
      "outputs": [],
      "stateMutability": "nonpayable",
      "type": "function"
    }
  ],
  "bytecode": "0x60806040523461038d57604080519081016001600160401b0381118282101761029a576040908152601082526f23b2b732b9b4b9902b32b934b334b2b960811b602083015280519081016001600160401b0381118282101761029a57604052600481526323a2a72b60e11b602082015281516001600160401b03811161029a57600054600181811c91168015610383575b602082101461027a57601f811161031f575b50602092601f82116001146102bb57928192936000926102b0575b50508160011b916000199060031b1c1916176000555b80516001600160401b03811161029a57600154600181811c91168015610290575b602082101461027a57601f8111610215575b50602091601f82116001146101b1579181926000926101a6575b50508160011b916000199060031b1c1916176001555b33156101905760068054336001600160a01b03198216811790925560405191906001600160a01b03167f8be0079c531659141344cd1fd0a4f28419497f9722a3daafe3b4186f6b6457e0600080a361128590816103938239f35b631e4fbdf760e01b600052600060045260246000fd5b015190503880610120565b601f198216926001600052806000209160005b8581106101fd575083600195106101e4575b505050811b01600155610136565b015160001960f88460031b161c191690553880806101d6565b919260206001819286850151815501940192016101c4565b60016000527fb10e2d527612073b26eecdfd717e6a320cf44b4afac2b0732d9fcbe2b7fa0cf6601f830160051c81019160208410610270575b601f0160051c01905b8181106102645750610106565b60008155600101610257565b909150819061024e565b634e487b7160e01b600052602260045260246000fd5b90607f16906100f4565b634e487b7160e01b600052604160045260246000fd5b0151905038806100bd565b601f1982169360008052806000209160005b86811061030757508360019596106102ee575b505050811b016000556100d3565b015160001960f88460031b161c191690553880806102e0565b919260206001819286850151815501940192016102cd565b600080527f290decd9548b62a8d60345a988386fc84ba6bc95484008f6362f93160ef3e563601f830160051c81019160208410610379575b601f0160051c01905b81811061036d57506100a2565b60008155600101610360565b9091508190610357565b90607f1690610090565b600080fdfe608080604052600436101561001357600080fd5b600090813560e01c90816301ffc9a714610ae45750806306fdde0314610a29578063081812fc146109ec578063095ea7b31461090457806315ea11a6146108db5780631fc3617f1461089c57806323b872dd1461088457806342842e0e1461085457806342966c68146107015780636352211e146106d05780636a6278421461064d57806370a0823114610621578063715018a6146105c45780638da5cb5b1461059b57806395d89b411461048e578063a22cb465146103f0578063b88d4fde14610355578063c87b56dd146102f9578063d67b06c1146101ee578063e985e9c5146101945763f2fde38b1461010857600080fd5b3461019157602036600319011261019157610121610b92565b610129610ed3565b6001600160a01b0316801561017d57600680546001600160a01b0319811683179091556001600160a01b03167f8be0079c531659141344cd1fd0a4f28419497f9722a3daafe3b4186f6b6457e0600080a380f35b631e4fbdf760e01b82526004829052602482fd5b80fd5b50346101915760403660031901126101915760406101b0610b92565b916101b9610bad565b9260018060a01b031681526005602052209060018060a01b0316600052602052602060ff604060002054166040519015158152f35b50346101915760203660031901126101915760043567ffffffffffffffff81116102f557366023820112156102f557806004013567ffffffffffffffff81116102f1576024820191602436918360051b0101116102f15761024d610ed3565b825b81811061025a578380f35b60019060075461026981610e07565b6007556102888161028361027e85888a610e62565b610e88565b610efc565b828060a01b0361029c61027e848789610e62565b1686526008602052604086208360ff19825416179055828060a01b036102c661027e848789610e62565b167fa6d293beb1d1b767a61a616dc7847401fab231a19dd075a18c340e300bd6f0a48780a30161024f565b8280fd5b5080fd5b503461019157602036600319011261019157610316600435610e9c565b5080604051610326602082610bfd565b5250610351604051610339602082610bfd565b60008152604051918291602083526020830190610b51565b0390f35b50346101915760803660031901126101915761036f610b92565b610377610bad565b6044356064359167ffffffffffffffff83116103ec57366023840112156103ec57826004013593856103a886610c35565b946103b66040519687610bfd565b86865236602488830101116102f557866103e99760246020930183890137860101526103e3838383610c51565b33611126565b80f35b8480fd5b50346101915760403660031901126101915761040a610b92565b602435908115158092036102f1576001600160a01b031690811561047a573383526005602052604083208284526020526040832060ff1981541660ff83161790556040519081527f17307eab39ab6107e8899845ad3d59bd9653f200f220920489ca2b5937696c3160203392a380f35b630b61174360e31b83526004829052602483fd5b50346101915780600319360112610191576040519080600154908160011c91600181168015610591575b60208410811461057d5783865290811561055657506001146104f9575b610351846104e581860382610bfd565b604051918291602083526020830190610b51565b600181527fb10e2d527612073b26eecdfd717e6a320cf44b4afac2b0732d9fcbe2b7fa0cf6939250905b80821061053c575090915081016020016104e5826104d5565b919260018160209254838588010152019101909291610523565b60ff191660208087019190915292151560051b850190920192506104e591508390506104d5565b634e487b7160e01b83526022600452602483fd5b92607f16926104b8565b50346101915780600319360112610191576006546040516001600160a01b039091168152602090f35b50346101915780600319360112610191576105dd610ed3565b600680546001600160a01b0319811690915581906001600160a01b03167f8be0079c531659141344cd1fd0a4f28419497f9722a3daafe3b4186f6b6457e08280a380f35b5034610191576020366003190112610191576020610645610640610b92565b610e2c565b604051908152f35b503461019157602036600319011261019157610667610b92565b61066f610ed3565b6007549061067c82610e07565b6007556106898282610efc565b6001600160a01b0316808352600860205260408320805460ff191660011790557fa6d293beb1d1b767a61a616dc7847401fab231a19dd075a18c340e300bd6f0a48380a380f35b50346101915760203660031901126101915760206106ef600435610e9c565b6040516001600160a01b039091168152f35b50346101915760203660031901126101915760043561071f81610e9c565b6001600160a01b031633148015610840575b1561080a57808252600260205260408220546001600160a01b031680159081156107d5575b82845260026020526040842080546001600160a01b03191690558284827fddf252ad1be2c89b69c2b068fc378daa952ba7f163c4a11628f55a4df523b3ef8280a4506107c3577f0459584bc5430be3fd05db6b1bda5b23ecdf1e2a4f6d95e3a74bf5b6d6e89ee88280a280f35b637e27328960e01b8252600452602490fd5b600083815260046020526040902080546001600160a01b03191690558084526003602052604084208054600019019055610756565b60405162461bcd60e51b815260206004820152600e60248201526d139bdd08185d5d1a1bdc9a5e995960921b6044820152606490fd5b506006546001600160a01b03163314610731565b5034610191576103e961086636610bc3565b9060405192610876602085610bfd565b8584526103e3838383610c51565b5034610191576103e961089636610bc3565b91610c51565b50346101915760203660031901126101915760209060ff906040906001600160a01b036108c7610b92565b168152600884522054166040519015158152f35b50346101915760203660031901126101915760206108fa610640610b92565b1515604051908152f35b50346101915760403660031901126101915761091e610b92565b60243561092a81610e9c565b331515806109d9575b806109ae575b61099b5781906001600160a01b0384811691167f8c5be1e5ebec7d5bd14f71427d1e84f3dd0314c0f7b2291e5b200ac8c7c3b9258680a4825260046020526040822080546001600160a01b0319166001600160a01b0390921691909117905580f35b63a9fbf51f60e01b845233600452602484fd5b506001600160a01b038116845260056020908152604080862033875290915284205460ff1615610939565b506001600160a01b038116331415610933565b503461019157602036600319011261019157602090600435610a0d81610e9c565b50815260048252604060018060a01b0391205416604051908152f35b503461019157806003193601126101915760405190808054908160011c91600181168015610ada575b60208410811461057d578386529081156105565750600114610a7e57610351846104e581860382610bfd565b8080527f290decd9548b62a8d60345a988386fc84ba6bc95484008f6362f93160ef3e563939250905b808210610ac0575090915081016020016104e5826104d5565b919260018160209254838588010152019101909291610aa7565b92607f1692610a52565b9050346102f55760203660031901126102f55760043563ffffffff60e01b81168091036102f157602092506380ac58cd60e01b8114908115610b40575b8115610b2f575b5015158152f35b6301ffc9a760e01b14905038610b28565b635b5e139f60e01b81149150610b21565b919082519283825260005b848110610b7d575050826000602080949584010152601f8019910116010190565b80602080928401015182828601015201610b5c565b600435906001600160a01b0382168203610ba857565b600080fd5b602435906001600160a01b0382168203610ba857565b6060906003190112610ba8576004356001600160a01b0381168103610ba857906024356001600160a01b0381168103610ba8579060443590565b90601f8019910116810190811067ffffffffffffffff821117610c1f57604052565b634e487b7160e01b600052604160045260246000fd5b67ffffffffffffffff8111610c1f57601f01601f191660200190565b6001600160a01b0390911691908215610df1576000828152600260205260408120546001600160a01b03169333151580610d62575b509060409185610d2e575b8082526003602052828220600181540190558482526002602052828220816bffffffffffffffffffffffff60a01b8254161790558481877fddf252ad1be2c89b69c2b068fc378daa952ba7f163c4a11628f55a4df523b3ef8580a48152600860205220805460ff191660011790556001600160a01b0316808303610d1457505050565b6364283d7b60e01b60005260045260245260445260646000fd5b600085815260046020526040902080546001600160a01b031916905585825260036020528282208054600019019055610c91565b80610da2575b15610d735738610c86565b838286610d8c57602491637e27328960e01b8252600452fd5b60449163177e802f60e01b825233600452602452fd5b503385148015610dd0575b80610d685750838252600460205260408220546001600160a01b03163314610d68565b5084825260056020908152604080842033855290915282205460ff16610dad565b633250574960e11b600052600060045260246000fd5b6000198114610e165760010190565b634e487b7160e01b600052601160045260246000fd5b6001600160a01b03168015610e4c57600052600360205260406000205490565b6322718ad960e21b600052600060045260246000fd5b9190811015610e725760051b0190565b634e487b7160e01b600052603260045260246000fd5b356001600160a01b0381168103610ba85790565b6000818152600260205260409020546001600160a01b0316908115610ebf575090565b637e27328960e01b60005260045260246000fd5b6006546001600160a01b03163303610ee757565b63118cdaa760e01b6000523360045260246000fd5b9060209060405190610f0e8383610bfd565b600082526001600160a01b038416938415610df1576000828152600285526040808220546001600160a01b031680151592909190836110f3575b88815260038852818120805460010190558581526002885281812080546001600160a01b0319168a1790558589847fddf252ad1be2c89b69c2b068fc378daa952ba7f163c4a11628f55a4df523b3ef8480a48881526008885220805460ff19166001179055506110dd573b610fbe575b50505050565b91610ffc91819495936040519384928392630a85bd0160e11b8452336004850152600060248501526044840152608060648401526084830190610b51565b03816000885af1809160009161109f575b50906110665750503d1561105e573d9061102682610c35565b916110346040519384610bfd565b82523d60008284013e5b8151918261105b5783633250574960e11b60005260045260246000fd5b01fd5b60609061103e565b909291506001600160e01b03191663757a42ff60e11b0161108b575038808080610fb8565b633250574960e11b60005260045260246000fd5b8481813d83116110d6575b6110b48183610bfd565b810103126102f55751906001600160e01b03198216820361019157503861100d565b503d6110aa565b6339e3563760e11b600052600060045260246000fd5b600086815260046020526040902080546001600160a01b0319169055828152600388528181208054600019019055610f48565b823b611134575b5050505050565b604051630a85bd0160e11b81526001600160a01b039182166004820152918116602483015260448201939093526080606482015291169160209082908190611180906084830190610b51565b03816000865af1809160009161120c575b50906111ea57503d156111e3573d6111a881610c35565b906111b66040519283610bfd565b81523d6000602083013e5b805190816111de5782633250574960e11b60005260045260246000fd5b602001fd5b60606111c1565b6001600160e01b03191663757a42ff60e11b0161108b5750388080808061112d565b6020813d602011611247575b8161122560209383610bfd565b810103126102f55751906001600160e01b031982168203610191575038611191565b3d915061121856fea26469706673582212202f14e5a0d20b7155e63611b60bd96bc7cba8cc8ab892bb7e5b20233e8abff19864736f6c634300081c0033",
  "linkReferences": {},
  "deployedLinkReferences": {}
}