{
  "_format": "hh-sol-artifact-1",
  "contractName": "TaskSplit",
  "sourceName": "contracts/TaskSplit.sol",
  "abi": [
    {
      "inputs": [],
      "name": "ReentrancyGuardReentrantCall",
      "type": "error"
    },
    {
      "anonymous": false,
      "inputs": [
        {
          "indexed": true,
          "internalType": "uint256",
          "name": "projectId",
          "type": "uint256"
        },
        {
          "indexed": true,
          "internalType": "uint256",
          "name": "taskId",
          "type": "uint256"
        },
        {
          "indexed": false,
          "internalType": "bool",
          "name": "approved",
          "type": "bool"
        },
        {
          "indexed": true,
          "internalType": "address",
          "name": "resolver",
          "type": "address"
        }
      ],
      "name": "DisputeResolved",
      "type": "event"
    },
    {
      "anonymous": false,
      "inputs": [
        {
          "indexed": true,
          "internalType": "uint256",
          "name": "projectId",
          "type": "uint256"
        },
        {
          "indexed": false,
          "internalType": "string",
          "name": "name",
          "type": "string"
        },
        {
          "indexed": true,
          "internalType": "address",
          "name": "sponsor",
          "type": "address"
        },
        {
          "indexed": false,
          "internalType": "uint256",
          "name": "rewardPool",
          "type": "uint256"
        }
      ],
      "name": "ProjectCreated",
      "type": "event"
    },
    {
      "anonymous": false,
      "inputs": [
        {
          "indexed": true,
          "internalType": "uint256",
          "name": "projectId",
          "type": "uint256"
        },
        {
          "indexed": true,
          "internalType": "address",
          "name": "contributor",
          "type": "address"
        },
        {
          "indexed": false,
          "internalType": "uint256",
          "name": "amount",
          "type": "uint256"
        },
        {
          "indexed": false,
          "internalType": "uint256",
          "name": "points",
          "type": "uint256"
        }
      ],
      "name": "RewardClaimed",
      "type": "event"
    },
    {
      "anonymous": false,
      "inputs": [
        {
          "indexed": true,
          "internalType": "uint256",
          "name": "projectId",
          "type": "uint256"
        },
        {
          "indexed": true,
          "internalType": "uint256",
          "name": "taskId",
          "type": "uint256"
        },
        {
          "indexed": false,
          "internalType": "string",
          "name": "description",
          "type": "string"
        },
        {
          "indexed": false,
          "internalType": "uint256",
          "name": "pointValue",
          "type": "uint256"
        }
      ],
      "name": "TaskAdded",
      "type": "event"
    },
    {
      "anonymous": false,
      "inputs": [
        {
          "indexed": true,
          "internalType": "uint256",
          "name": "projectId",
          "type": "uint256"
        },
        {
          "indexed": true,
          "internalType": "uint256",
          "name": "taskId",
          "type": "uint256"
        },
        {
          "indexed": true,
          "internalType": "address",
          "name": "claimant",
          "type": "address"
        }
      ],
      "name": "TaskCancelled",
      "type": "event"
    },
    {
      "anonymous": false,
      "inputs": [
        {
          "indexed": true,
          "internalType": "uint256",
          "name": "projectId",
          "type": "uint256"
        },
        {
          "indexed": true,
          "internalType": "uint256",
          "name": "taskId",
          "type": "uint256"
        },
        {
          "indexed": true,
          "internalType": "address",
          "name": "claimant",
          "type": "address"
        },
        {
          "indexed": false,
          "internalType": "uint256",
          "name": "deadline",
          "type": "uint256"
        }
      ],
      "name": "TaskClaimed",
      "type": "event"
    },
    {
      "anonymous": false,
      "inputs": [
        {
          "indexed": true,
          "internalType": "uint256",
          "name": "projectId",
          "type": "uint256"
        },
        {
          "indexed": true,
          "internalType": "uint256",
          "name": "taskId",
          "type": "uint256"
        },
        {
          "indexed": true,
          "internalType": "address",
          "name": "flagger",
          "type": "address"
        },
        {
          "indexed": false,
          "internalType": "uint256",
          "name": "stake",
          "type": "uint256"
        }
      ],
      "name": "TaskFlagged",
      "type": "event"
    },
    {
      "anonymous": false,
      "inputs": [
        {
          "indexed": true,
          "internalType": "uint256",
          "name": "projectId",
          "type": "uint256"
        },
        {
          "indexed": true,
          "internalType": "uint256",
          "name": "taskId",
          "type": "uint256"
        },
        {
          "indexed": true,
          "internalType": "address",
          "name": "contributor",
          "type": "address"
        },
        {
          "indexed": false,
          "internalType": "string",
          "name": "proofUrl",
          "type": "string"
        },
        {
          "indexed": false,
          "internalType": "uint256",
          "name": "challengePeriodEnd",
          "type": "uint256"
        }
      ],
      "name": "TaskSubmitted",
      "type": "event"
    },
    {
      "anonymous": false,
      "inputs": [
        {
          "indexed": true,
          "internalType": "uint256",
          "name": "projectId",
          "type": "uint256"
        },
        {
          "indexed": true,
          "internalType": "uint256",
          "name": "taskId",
          "type": "uint256"
        },
        {
          "indexed": true,
          "internalType": "address",
          "name": "contributor",
          "type": "address"
        },
        {
          "indexed": false,
          "internalType": "uint256",
          "name": "points",
          "type": "uint256"
        }
      ],
      "name": "TaskVerified",
      "type": "event"
    },
    {
      "inputs": [
        {
          "internalType": "uint256",
          "name": "projectId",
          "type": "uint256"
        },
        {
          "internalType": "string",
          "name": "description",
          "type": "string"
        },
        {
          "internalType": "uint256",
          "name": "points",
          "type": "uint256"
        }
      ],
      "name": "addTask",
      "outputs": [
        {
          "internalType": "uint256",
          "name": "",
          "type": "uint256"
        }
      ],
      "stateMutability": "nonpayable",
      "type": "function"
    },
    {
      "inputs": [
        {
          "internalType": "uint256",
          "name": "projectId",
          "type": "uint256"
        },
        {
          "internalType": "uint256",
          "name": "taskId",
          "type": "uint256"
        }
      ],
      "name": "cancelTask",
      "outputs": [],
      "stateMutability": "nonpayable",
      "type": "function"
    },
    {
      "inputs": [
        {
          "internalType": "uint256",
          "name": "projectId",
          "type": "uint256"
        }
      ],
      "name": "claimReward",
      "outputs": [],
      "stateMutability": "nonpayable",
      "type": "function"
    },
    {
      "inputs": [
        {
          "internalType": "uint256",
          "name": "projectId",
          "type": "uint256"
        },
        {
          "internalType": "uint256",
          "name": "taskId",
          "type": "uint256"
        }
      ],
      "name": "claimTask",
      "outputs": [],
      "stateMutability": "nonpayable",
      "type": "function"
    },
    {
      "inputs": [
        {
          "internalType": "string",
          "name": "name",
          "type": "string"
        },
        {
          "internalType": "uint256",
          "name": "durationDays",
          "type": "uint256"
        }
      ],
      "name": "createProject",
      "outputs": [
        {
          "internalType": "uint256",
          "name": "",
          "type": "uint256"
        }
      ],
      "stateMutability": "payable",
      "type": "function"
    },
    {
      "inputs": [
        {
          "internalType": "uint256",
          "name": "projectId",
          "type": "uint256"
        },
        {
          "internalType": "uint256",
          "name": "taskId",
          "type": "uint256"
        }
      ],
      "name": "flagSubmission",
      "outputs": [],
      "stateMutability": "payable",
      "type": "function"
    },
    {
      "inputs": [
        {
          "internalType": "uint256",
          "name": "projectId",
          "type": "uint256"
        },
        {
          "internalType": "address",
          "name": "contributor",
          "type": "address"
        }
      ],
      "name": "getContributorPoints",
      "outputs": [
        {
          "internalType": "uint256",
          "name": "",
          "type": "uint256"
        }
      ],
      "stateMutability": "view",
      "type": "function"
    },
    {
      "inputs": [],
      "name": "getLeaderboard",
      "outputs": [
        {
          "internalType": "address[]",
          "name": "earners",
          "type": "address[]"
        },
        {
          "internalType": "uint256[]",
          "name": "earnings",
          "type": "uint256[]"
        }
      ],
      "stateMutability": "view",
      "type": "function"
    },
    {
      "inputs": [
        {
          "internalType": "uint256",
          "name": "projectId",
          "type": "uint256"
        }
      ],
      "name": "getProject",
      "outputs": [
        {
          "internalType": "string",
          "name": "name",
          "type": "string"
        },
        {
          "internalType": "address",
          "name": "sponsor",
          "type": "address"
        },
        {
          "internalType": "uint256",
          "name": "rewardPool",
          "type": "uint256"
        },
        {
          "internalType": "uint256",
          "name": "totalVerifiedPoints",
          "type": "uint256"
        },
        {
          "internalType": "uint256",
          "name": "taskCount",
          "type": "uint256"
        }
      ],
      "stateMutability": "view",
      "type": "function"
    },
    {
      "inputs": [],
      "name": "getProjectCounter",
      "outputs": [
        {
          "internalType": "uint256",
          "name": "",
          "type": "uint256"
        }
      ],
      "stateMutability": "view",
      "type": "function"
    },
    {
      "inputs": [
        {
          "internalType": "uint256",
          "name": "projectId",
          "type": "uint256"
        },
        {
          "internalType": "address",
          "name": "contributor",
          "type": "address"
        }
      ],
      "name": "getProjectedReward",
      "outputs": [
        {
          "internalType": "uint256",
          "name": "",
          "type": "uint256"
        }
      ],
      "stateMutability": "view",
      "type": "function"
    },
    {
      "inputs": [
        {
          "internalType": "uint256",
          "name": "projectId",
          "type": "uint256"
        },
        {
          "internalType": "uint256",
          "name": "taskId",
          "type": "uint256"
        }
      ],
      "name": "getTask",
      "outputs": [
        {
          "internalType": "string",
          "name": "description",
          "type": "string"
        },
        {
          "internalType": "uint256",
          "name": "pointValue",
          "type": "uint256"
        },
        {
          "internalType": "uint256",
          "name": "claimDeadline",
          "type": "uint256"
        },
        {
          "internalType": "enum TaskSplit.TaskStatus",
          "name": "status",
          "type": "uint8"
        },
        {
          "internalType": "address",
          "name": "claimant",
          "type": "address"
        },
        {
          "internalType": "string",
          "name": "proofUrl",
          "type": "string"
        },
        {
          "internalType": "bool",
          "name": "verified",
          "type": "bool"
        }
      ],
      "stateMutability": "view",
      "type": "function"
    },
    {
      "inputs": [
        {
          "internalType": "address",
          "name": "",
          "type": "address"
        }
      ],
      "name": "globalEarnings",
      "outputs": [
        {
          "internalType": "uint256",
          "name": "",
          "type": "uint256"
        }
      ],
      "stateMutability": "view",
      "type": "function"
    },
    {
      "inputs": [
        {
          "internalType": "uint256",
          "name": "",
          "type": "uint256"
        }
      ],
      "name": "projects",
      "outputs": [
        {
          "internalType": "string",
          "name": "name",
          "type": "string"
        },
        {
          "internalType": "address",
          "name": "sponsor",
          "type": "address"
        },
        {
          "internalType": "uint256",
          "name": "rewardPool",
          "type": "uint256"
        },
        {
          "internalType": "uint256",
          "name": "initialRewardPool",
          "type": "uint256"
        },
        {
          "internalType": "uint256",
          "name": "totalVerifiedPoints",
          "type": "uint256"
        },
        {
          "internalType": "uint256",
          "name": "endTime",
          "type": "uint256"
        },
        {
          "internalType": "bool",
          "name": "exists",
          "type": "bool"
        }
      ],
      "stateMutability": "view",
      "type": "function"
    },
    {
      "inputs": [
        {
          "internalType": "uint256",
          "name": "projectId",
          "type": "uint256"
        },
        {
          "internalType": "uint256",
          "name": "taskId",
          "type": "uint256"
        },
        {
          "internalType": "bool",
          "name": "approveWork",
          "type": "bool"
        }
      ],
      "name": "resolveDispute",
      "outputs": [],
      "stateMutability": "nonpayable",
      "type": "function"
    },
    {
      "inputs": [
        {
          "internalType": "uint256",
          "name": "",
          "type": "uint256"
        }
      ],
      "name": "rewardEarners",
      "outputs": [
        {
          "internalType": "address",
          "name": "",
          "type": "address"
        }
      ],
      "stateMutability": "view",
      "type": "function"
    },
    {
      "inputs": [
        {
          "internalType": "uint256",
          "name": "projectId",
          "type": "uint256"
        },
        {
          "internalType": "uint256",
          "name": "taskId",
          "type": "uint256"
        },
        {
          "internalType": "string",
          "name": "proofUrl",
          "type": "string"
        }
      ],
      "name": "submitTask",
      "outputs": [],
      "stateMutability": "nonpayable",
      "type": "function"
    },
    {
      "inputs": [
        {
          "internalType": "uint256",
          "name": "projectId",
          "type": "uint256"
        },
        {
          "internalType": "uint256",
          "name": "taskId",
          "type": "uint256"
        }
      ],
      "name": "verifyTask",
      "outputs": [],
      "stateMutability": "nonpayable",
      "type": "function"
    }
  ],
  "bytecode": "0x6080604052348015600f57600080fd5b506001600055612a88806100246000396000f3fe6080604052600436106101095760003560e01c80636d763a6e11610095578063ae169a5011610064578063ae169a50146102db578063c7b58a15146102fb578063db6bebf914610328578063e33c937714610348578063f0f3f2c81461036857600080fd5b80636d763a6e1461027257806388cd70ad146102955780638de2ad64146102a857806391754a5d146102c857600080fd5b806313ee8d62116100dc57806313ee8d62146101a757806329426078146101c757806331f2cdc8146101ff57806336c47f5f1461021f57806352dd4eb11461023f57600080fd5b8063011c2d981461010e5780630c527d9d14610130578063107046bd146101545780631397e04a14610187575b600080fd5b34801561011a57600080fd5b5061012e61012936600461232d565b610399565b005b34801561013c57600080fd5b506001545b6040519081526020015b60405180910390f35b34801561016057600080fd5b5061017461016f366004612380565b61066f565b60405161014b97969594939291906123df565b34801561019357600080fd5b5061012e6101a236600461242e565b610741565b3480156101b357600080fd5b506101416101c236600461246c565b610939565b3480156101d357600080fd5b506101e76101e2366004612380565b61099c565b6040516001600160a01b03909116815260200161014b565b34801561020b57600080fd5b5061014161021a36600461246c565b6109c6565b34801561022b57600080fd5b5061012e61023a366004612498565b610a60565b34801561024b57600080fd5b5061025f61025a36600461242e565b610f01565b60405161014b97969594939291906124ec565b34801561027e57600080fd5b50610287611113565b60405161014b929190612568565b61012e6102a336600461242e565b61126a565b3480156102b457600080fd5b5061012e6102c336600461242e565b6114e0565b6101416102d63660046125f3565b61173d565b3480156102e757600080fd5b5061012e6102f6366004612380565b611905565b34801561030757600080fd5b5061014161031636600461263f565b60036020526000908152604090205481565b34801561033457600080fd5b5061012e61034336600461242e565b611c3f565b34801561035457600080fd5b50610141610363366004612661565b611e3b565b34801561037457600080fd5b50610388610383366004612380565b612134565b60405161014b9594939291906126b4565b6000848152600260205260409020600901548490849060ff166103d75760405162461bcd60e51b81526004016103ce906126f4565b60405180910390fd5b60008281526002602052604090206006015481106104075760405162461bcd60e51b81526004016103ce90612724565b600082815260026020526040902060060180543391908390811061042d5761042d612751565b60009182526020909120600a909102016006015461010090046001600160a01b03161461049c5760405162461bcd60e51b815260206004820152601b60248201527f4f6e6c7920636c61696d616e742063616e2063616c6c2074686973000000000060448201526064016103ce565b60008681526002602052604081206006018054879081106104bf576104bf612751565b60009182526020909120600a9091020190506001600682015460ff1660048111156104ec576104ec6124d6565b146105395760405162461bcd60e51b815260206004820152601e60248201527f5461736b206d75737420626520696e20436c61696d656420737461747573000060448201526064016103ce565b806002015442111561058d5760405162461bcd60e51b815260206004820152601a60248201527f436c61696d20646561646c696e6520686173206578706972656400000000000060448201526064016103ce565b836105da5760405162461bcd60e51b815260206004820152601960248201527f50726f6f662055524c2063616e6e6f7420626520656d7074790000000000000060448201526064016103ce565b600381016105e9858783612806565b5042600482015560058101805460ff1990811690915560068201805460029216600183021790555061061e6203f480426128dc565b60098201819055604051339188918a917f22bd2467ddf67070b40a9ab6e4c2b5fc21c1dc2003114f8f152c7b71adcfd8519161065e918b918b91906128f5565b60405180910390a450505050505050565b60026020526000908152604090208054819061068a9061277d565b80601f01602080910402602001604051908101604052809291908181526020018280546106b69061277d565b80156107035780601f106106d857610100808354040283529160200191610703565b820191906000526020600020905b8154815290600101906020018083116106e657829003601f168201915b5050506001840154600285015460038601546004870154600588015460099098015496976001600160a01b0390941696929550909350919060ff1687565b6000828152600260205260409020600901548290829060ff166107765760405162461bcd60e51b81526004016103ce906126f4565b60008281526002602052604090206006015481106107a65760405162461bcd60e51b81526004016103ce90612724565b60008281526002602052604090206006018054339190839081106107cc576107cc612751565b60009182526020909120600a909102016006015461010090046001600160a01b03161461083b5760405162461bcd60e51b815260206004820152601b60248201527f4f6e6c7920636c61696d616e742063616e2063616c6c2074686973000000000060448201526064016103ce565b600084815260026020526040812060060180548590811061085e5761085e612751565b60009182526020909120600a9091020190506001600682015460ff16600481111561088b5761088b6124d6565b146108d85760405162461bcd60e51b815260206004820152601e60248201527f5461736b206d75737420626520696e20436c61696d656420737461747573000060448201526064016103ce565b6006810180546001600160a81b031981169091556000600283018190556040516101009092046001600160a01b0316918291879189917f9777b138c43018466c9def7913ab072be130df50adc2dcb8eb414308d36d7a0b91a4505050505050565b600082815260026020526040812060090154839060ff1661096c5760405162461bcd60e51b81526004016103ce906126f4565b60008481526002602090815260408083206001600160a01b038716845260070190915290205491505b5092915050565b600481815481106109ac57600080fd5b6000918252602090912001546001600160a01b0316905081565b600082815260026020526040812060090154839060ff166109f95760405162461bcd60e51b81526004016103ce906126f4565b60008481526002602052604081206004810154909103610a1d576000925050610995565b6001600160a01b038416600090815260078201602052604090205460048201546003830154610a4c908361292e565b610a569190612945565b9695505050505050565b600083815260026020526040902060090154839060ff16610a935760405162461bcd60e51b81526004016103ce906126f4565b6000818152600260205260409020600101546001600160a01b03163314610afc5760405162461bcd60e51b815260206004820152601a60248201527f4f6e6c792073706f6e736f722063616e2063616c6c207468697300000000000060448201526064016103ce565b6000848152600260205260409020600901548490849060ff16610b315760405162461bcd60e51b81526004016103ce906126f4565b6000828152600260205260409020600601548110610b615760405162461bcd60e51b81526004016103ce90612724565b610b6961224a565b600086815260026020526040812060068101805491929188908110610b9057610b90612751565b60009182526020909120600a9091020190506003600682015460ff166004811115610bbd57610bbd6124d6565b14610c005760405162461bcd60e51b815260206004820152601360248201527215185cdac81a5cc81b9bdd08199b1859d9d959606a1b60448201526064016103ce565b6007810154600882015460068301546001600160a01b0392831692610100909104168815610d8b5760068401805460ff1990811660041790915560058501805490911660019081179091558401546001600160a01b038216600090815260078701602052604081208054909190610c789084906128dc565b90915550506001840154600486018054600090610c969084906128dc565b90915550506040516000906001600160a01b0383169084908381818185875af1925050503d8060008114610ce6576040519150601f19603f3d011682016040523d82523d6000602084013e610ceb565b606091505b5050905080610d3c5760405162461bcd60e51b815260206004820152601e60248201527f5472616e7366657220746f20636f6e7472696275746f72206661696c6564000060448201526064016103ce565b816001600160a01b03168b8d7fa9d21bf4fc78bf0b1c452d4358921f442691aa11cacdf1424f9c92601cb91e948860010154604051610d7d91815260200190565b60405180910390a450610e96565b84600501544211610db4576006840180546001600160a81b031916905560006002850155610dce565b6006840180546001600160a81b0319169055600060028501555b6040805160208101909152600081526003850190610dec9082612967565b506000600485018190556040516001600160a01b0385169084908381818185875af1925050503d8060008114610e3e576040519150601f19603f3d011682016040523d82523d6000602084013e610e43565b606091505b5050905080610e945760405162461bcd60e51b815260206004820152601a60248201527f5472616e7366657220746f20666c6167676572206661696c656400000000000060448201526064016103ce565b505b6007840180546001600160a01b031916905560006008850155604051891515815233908b908d907fa27015a0377c0d9543b642a583459fa12fc2b5b76aca6689c025f244f6f2ffe59060200160405180910390a45050505050610ef96001600055565b505050505050565b60008281526002602052604081206009015460609190819081908190859082908990899060ff16610f445760405162461bcd60e51b81526004016103ce906126f4565b6000828152600260205260409020600601548110610f745760405162461bcd60e51b81526004016103ce90612724565b60008b815260026020526040812060060180548c908110610f9757610f97612751565b60009182526020909120600a9091020160018101546002820154600683015460058401548454949550859460ff8084169361010090046001600160a01b03169260038801929116908790610fea9061277d565b80601f01602080910402602001604051908101604052809291908181526020018280546110169061277d565b80156110635780601f1061103857610100808354040283529160200191611063565b820191906000526020600020905b81548152906001019060200180831161104657829003601f168201915b505050505096508180546110769061277d565b80601f01602080910402602001604051908101604052809291908181526020018280546110a29061277d565b80156110ef5780601f106110c4576101008083540402835291602001916110ef565b820191906000526020600020905b8154815290600101906020018083116110d257829003601f168201915b50505050509150995099509950995099509950995050505092959891949750929550565b60045460609081908067ffffffffffffffff81111561113457611134612767565b60405190808252806020026020018201604052801561115d578160200160208202803683370190505b5092508067ffffffffffffffff81111561117957611179612767565b6040519080825280602002602001820160405280156111a2578160200160208202803683370190505b50915060005b81811015611264576000600482815481106111c5576111c5612751565b9060005260206000200160009054906101000a90046001600160a01b03169050808583815181106111f8576111f8612751565b60200260200101906001600160a01b031690816001600160a01b03168152505060036000826001600160a01b03166001600160a01b031681526020019081526020016000205484838151811061125057611250612751565b6020908102919091010152506001016111a8565b50509091565b6000828152600260205260409020600901548290829060ff1661129f5760405162461bcd60e51b81526004016103ce906126f4565b60008281526002602052604090206006015481106112cf5760405162461bcd60e51b81526004016103ce90612724565b6611c37937e0800034146113315760405162461bcd60e51b815260206004820152602360248201527f4d7573742073656e642065786163746c7920302e3030352045544820746f20666044820152626c616760e81b60648201526084016103ce565b600084815260026020526040812060060180548590811061135457611354612751565b60009182526020909120600a9091020190506002600682015460ff166004811115611381576113816124d6565b146113ce5760405162461bcd60e51b815260206004820181905260248201527f5461736b206d75737420626520696e205375626d69747465642073746174757360448201526064016103ce565b806009015442106114215760405162461bcd60e51b815260206004820152601a60248201527f4368616c6c656e676520706572696f642068617320656e64656400000000000060448201526064016103ce565b60078101546001600160a01b0316156114735760405162461bcd60e51b815260206004820152601460248201527315185cdac8185b1c9958591e48199b1859d9d95960621b60448201526064016103ce565b60068101805460ff191660031790556007810180546001600160a01b031916339081179091553460088301819055604051908152859087907f657e1cf25c59308161ac948e122c4ff2a67468db6c0b58f462be0f8a2e0443d2906020015b60405180910390a45050505050565b6000828152600260205260409020600901548290829060ff166115155760405162461bcd60e51b81526004016103ce906126f4565b60008281526002602052604090206006015481106115455760405162461bcd60e51b81526004016103ce90612724565b60008481526002602052604081206006810180549192918690811061156c5761156c612751565b60009182526020909120600a9091020190506002600682015460ff166004811115611599576115996124d6565b146115e65760405162461bcd60e51b815260206004820181905260248201527f5461736b206d75737420626520696e205375626d69747465642073746174757360448201526064016103ce565b806009015442101561163a5760405162461bcd60e51b815260206004820152601e60248201527f4368616c6c656e676520706572696f6420686173206e6f7420656e646564000060448201526064016103ce565b816005015442111561167e5760405162461bcd60e51b815260206004820152600d60248201526c141c9bda9958dd08195b991959609a1b60448201526064016103ce565b600681018054600460ff19918216179182905560058301805490911660019081179091558201546101009091046001600160a01b03166000818152600785016020526040812080549293929091906116d79084906128dc565b909155505060018201546004840180546000906116f59084906128dc565b92505081905550806001600160a01b031686887fa9d21bf4fc78bf0b1c452d4358921f442691aa11cacdf1424f9c92601cb91e94856001015460405161065e91815260200190565b600080341161178e5760405162461bcd60e51b815260206004820152601f60248201527f4d7573742073656e642045544820746f206372656174652070726f6a6563740060448201526064016103ce565b826117db5760405162461bcd60e51b815260206004820152601c60248201527f50726f6a656374206e616d652063616e6e6f7420626520656d7074790000000060448201526064016103ce565b600082116118365760405162461bcd60e51b815260206004820152602260248201527f4475726174696f6e206d7573742062652067726561746572207468616e207a65604482015261726f60f01b60648201526084016103ce565b600180546000918261184783612a26565b90915550600081815260026020526040902090915080611868868883612806565b506001810180546001600160a01b03191633179055346002820181905560038201556000600482015561189e846201518061292e565b6118a890426128dc565b600582015560098101805460ff19166001179055604051339083907fa026ee65bff24e0219543a4cec2746ef952b145e2658ac5db36953d7044712a9906118f4908a908a9034906128f5565b60405180910390a350949350505050565b600081815260026020526040902060090154819060ff166119385760405162461bcd60e51b81526004016103ce906126f4565b61194061224a565b600082815260026020526040902060058101544210156119965760405162461bcd60e51b8152602060048201526011602482015270141c9bda9958dd081b9bdd08195b991959607a1b60448201526064016103ce565b33600090815260088201602052604090205460ff16156119f15760405162461bcd60e51b815260206004820152601660248201527514995dd85c9908185b1c9958591e4818db185a5b595960521b60448201526064016103ce565b33600090815260078201602052604090205480611a435760405162461bcd60e51b815260206004820152601060248201526f139bc81c1bda5b9d1cc819585c9b995960821b60448201526064016103ce565b6000826004015411611a8c5760405162461bcd60e51b81526020600482015260126024820152714e6f20766572696669656420706f696e747360701b60448201526064016103ce565b60008260040154836003015483611aa3919061292e565b611aad9190612945565b3360009081526008850160209081526040808320805460ff191660011790556003909152812080549293508392909190611ae89084906128dc565b90915550503360009081526005602052604090205460ff16611b5f576004805460018181019092557f8a35acfbc15ff81a39ae7d344fd709f28e8600b4aa8c65c6b64bfe7fe36bd19b0180546001600160a01b031916339081179091556000908152600560205260409020805460ff191690911790555b604051600090339083908381818185875af1925050503d8060008114611ba1576040519150601f19603f3d011682016040523d82523d6000602084013e611ba6565b606091505b5050905080611bf05760405162461bcd60e51b815260206004820152601660248201527514995dd85c99081d1c985b9cd9995c8819985a5b195960521b60448201526064016103ce565b6040805183815260208101859052339188917ffc6ecd966b430510beae9124efe7dd517ed5286d7ed0ae258f8556c7a9765a44910160405180910390a350505050611c3b6001600055565b5050565b6000828152600260205260409020600901548290829060ff16611c745760405162461bcd60e51b81526004016103ce906126f4565b6000828152600260205260409020600601548110611ca45760405162461bcd60e51b81526004016103ce90612724565b6000848152600260205260408120600601805485908110611cc757611cc7612751565b60009182526020909120600a9091020190506001600682015460ff166004811115611cf457611cf46124d6565b03611d5d5780600201544211611d585760405162461bcd60e51b815260206004820152602360248201527f5461736b20636c61696d20646561646c696e6520686173206e6f7420657870696044820152621c995960ea1b60648201526084016103ce565b611dd0565b6000600682015460ff166004811115611d7857611d786124d6565b14611dd05760405162461bcd60e51b815260206004820152602260248201527f5461736b206973206e6f7420617661696c61626c6520666f7220636c61696d696044820152616e6760f01b60648201526084016103ce565b60068101805460ff196101003302166001600160a81b0319909116176001179055611dfe6202a300426128dc565b600282018190556040519081523390859087907f09f2154268f715a510cd9dbb97c17702e0d074b747d0eb595c97e104a30600ab906020016114d1565b600084815260026020526040812060090154859060ff16611e6e5760405162461bcd60e51b81526004016103ce906126f4565b6000818152600260205260409020600101546001600160a01b03163314611ed75760405162461bcd60e51b815260206004820152601a60248201527f4f6e6c792073706f6e736f722063616e2063616c6c207468697300000000000060448201526064016103ce565b83611f245760405162461bcd60e51b815260206004820181905260248201527f5461736b206465736372697074696f6e2063616e6e6f7420626520656d70747960448201526064016103ce565b60008311611f745760405162461bcd60e51b815260206004820181905260248201527f506f696e7473206d7573742062652067726561746572207468616e207a65726f60448201526064016103ce565b6000868152600260205260409020611f8a612274565b86868080601f0160208091040260200160405190810160405280939291908181526020018383808284376000920182905250938552505050602080830187905260808301829052600684018054600181018255908352912082518392600a02909101908190611ff99082612967565b50602082015160018201556040820151600282015560608201518051600383019081906120269082612967565b5060208201516001808301919091556040909201516002909101805491151560ff199283161790556080840151600684018054919390929190911690836004811115612074576120746124d6565b021790555060a082015160068281018054610100600160a81b0319166101006001600160a01b0394851681029190911790915560c08501516007850180546001600160a01b031916919094161790925560e084015160088401559201516009909101558201546000906120e990600190612a3f565b905080897f9e1afc9222baf1c44fe63931e68dbaa67b1cb2134b22fa6a6a6025574c6d98bc8a8a8a604051612120939291906128f5565b60405180910390a398975050505050505050565b60008181526002602052604081206009015460609190819081908190869060ff166121715760405162461bcd60e51b81526004016103ce906126f4565b6000878152600260208190526040909120600181015491810154600482015460068301548354939485946001600160a01b039091169392919085906121b59061277d565b80601f01602080910402602001604051908101604052809291908181526020018280546121e19061277d565b801561222e5780601f106122035761010080835404028352916020019161222e565b820191906000526020600020905b81548152906001019060200180831161221157829003601f168201915b5050505050945096509650965096509650505091939590929450565b60026000540361226d57604051633ee5aeb560e01b815260040160405180910390fd5b6002600055565b6040518061012001604052806060815260200160008152602001600081526020016122bb604051806060016040528060608152602001600081526020016000151581525090565b815260200160008152600060208201819052604082018190526060820181905260809091015290565b60008083601f8401126122f657600080fd5b50813567ffffffffffffffff81111561230e57600080fd5b60208301915083602082850101111561232657600080fd5b9250929050565b6000806000806060858703121561234357600080fd5b8435935060208501359250604085013567ffffffffffffffff81111561236857600080fd5b612374878288016122e4565b95989497509550505050565b60006020828403121561239257600080fd5b5035919050565b6000815180845260005b818110156123bf576020818501810151868301820152016123a3565b506000602082860101526020601f19601f83011685010191505092915050565b60e0815260006123f260e083018a612399565b6001600160a01b039890981660208301525060408101959095526060850193909352608084019190915260a0830152151560c090910152919050565b6000806040838503121561244157600080fd5b50508035926020909101359150565b80356001600160a01b038116811461246757600080fd5b919050565b6000806040838503121561247f57600080fd5b8235915061248f60208401612450565b90509250929050565b6000806000606084860312156124ad57600080fd5b8335925060208401359150604084013580151581146124cb57600080fd5b809150509250925092565b634e487b7160e01b600052602160045260246000fd5b60e0815260006124ff60e083018a612399565b8860208401528760408401526005871061252957634e487b7160e01b600052602160045260246000fd5b606083018790526001600160a01b038616608084015282810360a08401526125518186612399565b91505082151560c083015298975050505050505050565b6040808252835190820181905260009060208501906060840190835b818110156125ab5783516001600160a01b0316835260209384019390920191600101612584565b50508381036020808601919091528551808352918101925085019060005b818110156125e75782518452602093840193909201916001016125c9565b50919695505050505050565b60008060006040848603121561260857600080fd5b833567ffffffffffffffff81111561261f57600080fd5b61262b868287016122e4565b909790965060209590950135949350505050565b60006020828403121561265157600080fd5b61265a82612450565b9392505050565b6000806000806060858703121561267757600080fd5b84359350602085013567ffffffffffffffff81111561269557600080fd5b6126a1878288016122e4565b9598909750949560400135949350505050565b60a0815260006126c760a0830188612399565b6001600160a01b039690961660208301525060408101939093526060830191909152608090910152919050565b602080825260169082015275141c9bda9958dd08191bd95cc81b9bdd08195e1a5cdd60521b604082015260600190565b60208082526013908201527215185cdac8191bd95cc81b9bdd08195e1a5cdd606a1b604082015260600190565b634e487b7160e01b600052603260045260246000fd5b634e487b7160e01b600052604160045260246000fd5b600181811c9082168061279157607f821691505b6020821081036127b157634e487b7160e01b600052602260045260246000fd5b50919050565b601f82111561280157806000526020600020601f840160051c810160208510156127de5750805b601f840160051c820191505b818110156127fe57600081556001016127ea565b50505b505050565b67ffffffffffffffff83111561281e5761281e612767565b6128328361282c835461277d565b836127b7565b6000601f841160018114612866576000851561284e5750838201355b600019600387901b1c1916600186901b1783556127fe565b600083815260209020601f19861690835b828110156128975786850135825560209485019460019092019101612877565b50868210156128b45760001960f88860031b161c19848701351681555b505060018560011b0183555050505050565b634e487b7160e01b600052601160045260246000fd5b808201808211156128ef576128ef6128c6565b92915050565b604081528260408201528284606083013760006060848301015260006060601f19601f8601168301019050826020830152949350505050565b80820281158282048414176128ef576128ef6128c6565b60008261296257634e487b7160e01b600052601260045260246000fd5b500490565b815167ffffffffffffffff81111561298157612981612767565b6129958161298f845461277d565b846127b7565b6020601f8211600181146129c957600083156129b15750848201515b600019600385901b1c1916600184901b1784556127fe565b600084815260208120601f198516915b828110156129f957878501518255602094850194600190920191016129d9565b5084821015612a175786840151600019600387901b60f8161c191681555b50505050600190811b01905550565b600060018201612a3857612a386128c6565b5060010190565b818103818111156128ef576128ef6128c656fea26469706673582212203e0c5246845517384d2c0406a6254c6eea0d4481cb211265e9c7f20c9d746df664736f6c634300081c0033",
  "linkReferences": {},
  "deployedLinkReferences": {}
}